:020000040800F2
:100000002005002001010008E90E0008EB0E0008A1
:10001000EF0E0008F30E0008F70E000800000000C5
:10002000000000000000000000000000FB0E0008BF
:10003000FD0E000800000000FF0E0008010F000880
:100040001B0100081B0100081B0100081B01000820
:100050001B0100081B0100081B0100081B01000810
:100060001B0100081B0100081B0100081B01000800
:100070001B0100081B0100081B0100081B010008F0
:100080001B0100081B0100081B0100081B010008E0
:100090001B0100081B0100081B0100081B010008D0
:1000A0001B0100081B0100081B0100081B010008C0
:1000B0001B0100081B0100081B0100081B010008B0
:1000C0001B0100081B0100081B0100081B010008A0
:1000D0001B010008F50F00081B0100081B010008A8
:1000E0001B0100081B0100081B010008DFF80CD0F1
:1000F00001F05EFD00480047050F000820050020C4
:100100000648804706480047FEE7FEE7FEE7FEE7B1
:10011000FEE7FEE7FEE7FEE7FEE7FEE70302000874
:10012000ED0000080CB50020019000906C480068BC
:1001300040F480306A49086000BF6948006800F4F4
:10014000003000900198401C0190009818B9019867
:10015000B0F5A06FF1D16248006800F4003010B132
:100160000120009001E0002000900098012843D178
:100170005C48006840F010005A4908600846006872
:1001800020F0030008600846006840F002000860A4
:1001900053484068524948600846406848600846ED
:1001A000406840F4806048600846406820F47C1055
:1001B00048600846406840F4E81048600846006817
:1001C00040F08070086000BF4548006800F0007093
:1001D0000028F9D04248406820F0030040494860B8
:1001E0000846406840F00200486000BF3C48406854
:1001F00000F00C000828F9D10CBD10B5FFF792FFF4
:1002000010BD10B53648006840F001003449086060
:10021000084640683449084031494860084600684B
:10022000324908402E4908600846006820F48020C2
:1002300008600846406820F4FE0048604FF41F0044
:100240008860FFF7DAFF4FF000602949086010BDB1
:1002500010B5002100200022214B5B6803F00C0147
:1002600021B1042906D0082928D107E0214B224CCE
:10027000236027E01F4B204C236023E0184B5B6872
:1002800003F47010164B5B6803F48032022303EB17
:10029000904022B9194B4343174C23600DE0104B9B
:1002A0005B6803F4003323B1144B4343124C2360C7
:1002B00003E0104B4343104C236003E00D4B0E4C06
:1002C000236000BF00BF064B5B68C3F303130C4CF5
:1002D000E15C094B1B68CB40074C236010BD00005C
:1002E00000100240002002400000FFF8FFFFF6FE71
:1002F00008ED00E000127A000000002000093D0037
:100300000400002031490143314A1160704770B543
:10031000002100230F22C47804B32D4C246804F478
:10032000E064C4F5E064210AC1F10403CA404478E2
:1003300004FA03F18478144021430901254C06781E
:10034000A155047804F01F050124AC4005786D1117
:10035000AD0005F1E025C5F8004109E0047804F09E
:100360001F050124AC401C4D0678761145F8264047
:1003700070BD1A4A0A400243154B1B1F1A60704792
:1003800039B1134A121D12680243114B1B1D1A602A
:1003900006E00F4A121D126882430D4B1B1D1A60A6
:1003A0007047042808D14FF0E021096941F00401A9
:1003B0004FF0E022116107E04FF0E021096921F0E0
:1003C00004014FF0E0221161704700000000FA05BF
:1003D0000CED00E000E400E080E100E080FFFF1FA2
:1003E00010B50446CC48844208D10121042000F015
:1003F0002DFB0021042000F029FB46E0C748844281
:1004000008D10121082000F021FB0021082000F084
:100410001DFB3AE0C248844208D10121102000F0BF
:1004200015FB0021102000F011FB2EE0BD48844296
:1004300008D10121202000F009FB0021202000F03C
:1004400005FB22E0B848844208D10121402000F099
:10045000FDFA0021402000F0F9FA16E0B34884428A
:1004600008D10121802000F0F1FA0021802000F065
:10047000EDFA0AE0AE48844207D10121801500F070
:10048000E5FA0021A01500F0E1FA10BD10B5012138
:10049000084600F0DBFA0021012000F0D7FA10BD79
:1004A0002DE9F0410246002500260020002300240B
:1004B000002791F803C00CF00F0591F803C00CF071
:1004C000100CBCF1000F03D091F802C04CEA0505F6
:1004D00091F800C0BCF1000F31D0146800202BE06F
:1004E0004FF0010C0CFA00F3B1F800C00CEA03065F
:1004F0009E4220D183004FF00F0C0CFA03F7BC434F
:1005000005FA03FC4CEA040491F803C0BCF1280F7F
:1005100006D14FF0010C0CFA00FCC2F814C00AE03E
:1005200091F803C0BCF1480F05D14FF0010C0CFA53
:1005300000FCC2F810C0401C0828D1D31460B1F8E8
:1005400000C0BCF1FF0F34DD546800202EE000F144
:10055000080C4FF0010808FA0CF3B1F800C00CEADF
:1005600003069E4221D183004FF00F0C0CFA03F7D3
:10057000BC4305FA03FC4CEA040491F803C0BCF147
:10058000280F05D100F1080C08FA0CF8C2F8148005
:1005900091F803C0BCF1480F07D100F1080C4FF0EF
:1005A000010808FA0CF8C2F81080401C0828CED3C5
:1005B0005460BDE8F0814FF6FF7101800221817027
:1005C0000421C17070470246002093680B400BB1B4
:1005D000012000E0002070470146886880B2704723
:1005E00002460020D3680B400BB1012000E0002040
:1005F00070470146C86880B2704701617047416129
:1006000070470AB1016100E041617047C160704705
:100610004FF480320A43826181618261826982691A
:10062000704702460020434B18684FF6807318400D
:1006300040EA021008433F4B186070473E49C861CA
:100640007047F0B50A46002300240021002500F081
:100650000046B6F1004F02D1364EF16901E0354E49
:100660007168C0F3034583B200F44016B6F5401F2D
:1006700008D121F070612F4E766826F070662D4FFC
:100680007E6012E000F48016B6F5801F06D10326C6
:1006900006FA05F4A14341F0706106E0460D36010B
:1006A00003FA06F6B14341F0706122B1460D3601FE
:1006B00003FA06F6314300F00046B6F1004F02D1CE
:1006C0001C4EF16101E01B4E7160F0BD30B500229F
:1006D0008B071C0F0F2303FA04F2164B08338C1000
:1006E00053F824309343134C08348D1044F82530CC
:1006F00023468C1053F824308C07240F00FA04F49E
:1007000023430C4C08348D1044F8253030BD0A4981
:10071000DC3108607047000000080140000C014017
:10072000001001400014014000180140001C01406D
:10073000002001400000014000002042DF48006826
:1007400040F00100DD49086008464068DC49084087
:10075000DA49486008460068DA490840D749086025
:100760000846006820F4802008600846406820F4AD
:10077000FE0048604FF41F0088607047CF49096849
:1007800021F48031CD4A11601146096821F480219D
:100790001160B0F5803F03D0B0F5802F0ED106E098
:1007A000C649096841F48031C44A116007E0C34971
:1007B000096841F4A021C14A116000E000BF00BFF8
:1007C000704710B501460022002300204A11012A7B
:1007D00002D1BA4C236806E0022A02D1B74C236A40
:1007E00001E0B64C636A01F01F02012494401C40F2
:1007F0000CB1012000E0002010BD38B500200090B1
:100800000024002500BF3120FFF7DBFF05460098DC
:10081000401C00900098B0F5A06F01D0002DF2D0E0
:100820003120FFF7CEFF08B1012400E0002420466C
:1008300038BD01460020A14A106820F0F80040EAC7
:10084000C10010607047A049086070470246002050
:100850009A4B586820F47C1042EA01031843974BE6
:100860005860704798490866704701460020934ACF
:10087000506820F003000843506070478F4840687C
:1008800000F00C007047014600208C4A506820F0B0
:10089000F00008435060704701460020874A5068C6
:1008A00020F4E06008435060704701460020834A0E
:1008B000506820F4605040EAC1005060704729B190
:1008C0007E4A527A02437D4B5A7204E07B4A527A46
:1008D00082437A4B5A7270477B49D831086070471F
:1008E00001460020754A506820F44040084350609B
:1008F00070470021714A20321170704A82F820102E
:10090000012802D004280AD104E001216B4A2032D8
:10091000117005E00521694A2032117000E000BF26
:1009200000BF70476949086070476449096A01431C
:10093000624A11627047654944390860704730B5B2
:1009400000210022002400235C4D6D6805F00C019D
:1009500021B1042905D0082923D105E05C4D0560AB
:1009600022E05B4D05601FE0544D6D6805F4701288
:10097000524D6D6805F48034022505EB92421CB996
:10098000544D554305600BE04C4D6D6805F4003542
:100990001DB1504D5543056002E04D4D5543056076
:1009A00002E04B4D056000BF00BF444D6D6805F08F
:1009B000F0010909484D6B5C0568DD4045603F4D1D
:1009C0006D6805F4E061090A434D6B5C4568DD40E4
:1009D00085603A4D6D6805F46051C90A3E4D6B5C07
:1009E0004568DD40C560354D6D6805F44041890BB3
:1009F0003A4D6B5CC568B5FBF3F5056130BD29B1B7
:100A00002E4A526902432D4B5A6104E02B4A526927
:100A100082432A4B5A61704729B1284A926902439E
:100A2000264B9A6104E0254A92698243234B9A61DE
:100A3000704729B1214AD2690243204BDA6104E0B0
:100A40001E4AD26982431D4BDA61704729B11B4AA5
:100A5000D2680243194BDA6004E0184AD268824334
:100A6000164BDA60704729B1144A12690243134BDE
:100A70001A6104E0114A12698243104B1A617047EF
:100A800012494039086070470F49C86470470B49E4
:100A9000C87170470948406A40F080700749486251
:100AA000704701460020054A92680A400AB10120B9
:100AB00000E0002070470149887270470010024032
:100AC0000000FFF8FFFFF6FE0000424280044242B1
:100AD00000127A0000093D001400002024000020CC
:100AE00010B50446FB48844209D101218803FFF771
:100AF000ADFF00214FF48040FFF7A8FF32E0F64839
:100B0000844209D101214804FFF7ADFF00214FF4D1
:100B10000030FFF7A8FF25E0F048844209D1012109
:100B20008804FFF7A0FF00214FF48020FFF79BFF10
:100B300018E0EB48844209D10121C804FFF793FF74
:100B400000214FF40020FFF78EFF0BE0E5488442C0
:100B500008D101210805FFF786FF00214FF480101E
:100B6000FFF781FF10BD2DE9F04786B005460E4620
:100B70000024A24600BFA1460027B08900B100BFF3
:100B80002F462C8A4CF6FF700440F08804432C82D8
:100B9000AC894EF6F3100440B0883189084371895E
:100BA00008430443AC81AC8A4FF6FF400440B0894F
:100BB0000443AC8201A8FFF7C2FEC648874202D1B7
:100BC000DDF810A001E0DDF80CA0A88900F40040D9
:100BD00040B10AEBCA0000EB0A1031684900B0FBD3
:100BE000F1F807E00AEBCA0000EB0A10316889004F
:100BF000B0FBF1F86420B8FBF0F004012009642197
:100C000001FB1089A88900F4004040B1322000EBBC
:100C1000C900B0FBF1F000F00700044308E0322007
:100C200000EB09106421B0FBF1F000F00F00044369
:100C30002C8106B0BDE8F0874FF416510160002109
:100C40008180C18001810C21418100218181704717
:100C500010B502460020108A4FF2FF0318400B889F
:100C60004C8823438C882343CC8823431843108229
:100C700010BD0021018041808180C180704721B179
:100C8000828942F40052828104E082894DF6FF732A
:100C90001A4082817047F0B50346002400260025E3
:100CA000002040F66A17B94200D100BF1846C1F3D0
:100CB000421401F01F06012707FA06F5012C01D1A5
:100CC0000C3004E0022C01D1103000E014301AB1D5
:100CD00007682F43076002E00768AF430760F0BD75
:100CE0001AB1838A0B43838202E0838A8B43838217
:100CF0007047028A4FF6F0731A400282028A0A4352
:100D00000282704782894FF2FF731A408281828982
:100D10000A438281704721B1828942F002028281B6
:100D200004E082894FF6FD731A4082817047028A7F
:100D30004FF6DF731A400282028A0A43028270472A
:100D400021B1028A42F48042028204E0028A4BF618
:100D5000FF731A4002827047C1F308028280704715
:100D600001468888C0F308007047818941F001017D
:100D700081817047028BD2B20283028B42EA012248
:100D800002837047028B02F47F420283028B0A4384
:100D90000283704721B1828A42F02002828204E0FD
:100DA000828A4FF6DF731A408282704721B1828AAD
:100DB00042F01002828204E0828A4FF6EF731A40FA
:100DC0008282704721B1828A42F00802828204E066
:100DD000828A4FF6F7731A408282704721B1828966
:100DE00042F40042828103E08289C2F30E028281D2
:100DF000704721B1828A42F40062828204E0828AD2
:100E00004FF2FF731A4082827047828A4FF6FB735B
:100E10001A408282828A0A438282704721B1828A82
:100E200042F00202828204E0828A4FF6FD731A4089
:100E30008282704702460020B1F5007F00D100BFDA
:100E400013880B400BB1012000E00020704701F433
:100E50000072B2F5007F00D100BFCA430280704724
:100E600070B50246002400230025002040F66A16D3
:100E7000B14200D100BFC1F3421501F01F030126AA
:100E800006FA03F3012D02D19689334006E0022DC4
:100E900002D1168A334001E0968A33400C120126B3
:100EA00006FA04F41688344013B10CB1012000E0B6
:100EB000002070BD10B50022002340F66A14A14244
:100EC00000D100BF0A1201249440A3B2DC43048085
:100ED00010BD0000003801400044004000480040C0
:100EE000004C004000500040704700BFFEE700BFCC
:100EF000FEE700BFFEE700BFFEE7704770477047A0
:100F00007047000000F0BCF84FF4E13000F026F824
:100F100000F020F908E005A000F05CFE00F0DCFD28
:100F200040F2DC5000F0E9F8F5E70000BFAACABCC7
:100F3000B2E2C1BFA3ACC7EBC9D4B5C8A3BA000025
:100F400000BF704700BF4A4A128802F04002002AE0
:100F5000F9D0C2B2464B1B1D1A80704710B586B03F
:100F60000446012144F20400FFF756FD4FF40070DF
:100F7000ADF8140003208DF8160018208DF8170026
:100F800005A93C48FFF78CFA4FF48060ADF81400D7
:100F900004208DF8170005A93648FFF781FA2520AF
:100FA0008DF8000003208DF801008DF8020001206B
:100FB0008DF803006846FFF7AAF901940020ADF808
:100FC0000800ADF80A00ADF80C00ADF810000C20D8
:100FD000ADF80E0001A92648FFF7C5FD012240F239
:100FE00025512348FFF757FE01212148FFF747FE0F
:100FF00006B010BD10B540F225511D48FFF730FF77
:1010000010B31B48FFF7ACFEC4B21B48008800F4C5
:101010000040C8B91848008800F4804060B10A2C2C
:1010200003D000201449088020E01348008840F4D1
:1010300000401149088019E00D2C06D10E480088A7
:1010400040F480400C49088010E00B480088C0F351
:101050000D000A490C5408480088401C06490880C5
:1010600008460088C72801DD0020088010BD000068
:1010700000380140000801402C00002054000020EE
:1010800010B56FF00400FFF78CF92E4800682E4968
:10109000B0FBF1F02D4908700846007800EB4001E4
:1010A000C1EBC0104FF6FF7101EAC000284908806B
:1010B00010BD0146254A12784A434FF0E0235A6199
:1010C00000229A611A46126942F001021A6100BFB9
:1010D0004FF0E022106900F001021AB100F48032F2
:1010E000002AF5D04FF0E022126922F001024FF001
:1010F000E0231A6100229A6170470146144A12885F
:101100004A434FF0E0235A6100229A611A4612695D
:1011100042F001021A6100BF4FF0E022106900F0B6
:1011200001021AB100F48032002AF5D04FF0E0221B
:10113000126922F001024FF0E0231A6100229A6145
:10114000704700000000002000127A002E000020EE
:101150003000002008B501210820FFF75DFCC02009
:10116000ADF8000010208DF8030003208DF8020078
:101170006946FC48FFF794F90120FB490860FB49E8
:10118000C1F89C0108BD10B5F648006820F0704019
:10119000F44908600846006840F0405008600120AB
:1011A000F149091D0860F149C1F898010420FFF7D1
:1011B00080FF0020EC49091D08600420FFF779FF3B
:1011C0000020EA49C1F8980110BD10B5E548006853
:1011D00020F07040E34908600846006840F0405045
:1011E00008600020E0490860E049C1F89C01042043
:1011F000FFF75FFF0120DC490860DC49C1F89C0172
:101200000420FFF756FF10BD10B50024D548006834
:1012100020F07040D34908600846006840F0004064
:1012200008600120D049091D0860FFF742FF012036
:10123000CE49C1F89801FFF73CFF07E0601CC4B23B
:10124000FA2C03DDFFF7C1FF012010BDC6487C3832
:1012500000680028F2D1C449086000BFF5E710B566
:101260000020C1490860BF48006820F07040BD49B7
:1012700008600846006840F0405008600020BB4904
:10128000C1F89C010220FFF714FF0120B649086055
:101290000220FFF70EFF0020B449C1F8980110BDED
:1012A00010B50020B0490860AE48006820F07040DA
:1012B000AC4908600846006840F0405008600120D2
:1012C000AA49C1F89C010220FFF7F3FE0120A649BC
:1012D00008600220FFF7EDFE0020A449C1F8980144
:1012E00010BD70B504469F48006820F070409D49CD
:1012F00008600846006840F04050086000209A49A5
:101300000860002517E0E0099749091D086060069C
:10131000040E0220FFF7CDFE01209449C1F8980188
:101320000220FFF7C6FE00208F4908600220FFF769
:10133000C0FE681CC5B2082DE5DB70BD70B5054662
:1013400000248848006820F07040864908600846FC
:10135000006840F000400860002616E00020824946
:1013600008600220FFF7A5FE01208049C1F898011E
:101370006006040E7C487C38006808B1601CC4B26A
:101380000120FFF796FE701CC6B2082EE6DB15B9E9
:10139000FFF786FF01E0FFF762FF204670BD2DE9F1
:1013A000F04104460E461546FFF7EDFEA02D0BD189
:1013B0002746E11704EB11610912A02202EB41015B
:1013C000C8B2FFF78EFF02E02846FFF78AFFFFF75B
:1013D0001BFFE0B2FFF785FFFFF716FF3046FFF770
:1013E00080FFFFF711FFFFF7F0FEA02D03D10A20C9
:1013F000FFF783FE02E00220FFF75BFEBDE8F0810D
:101400002DE9F04104460D461746FFF7BCFEA02D1E
:101410000BD1A046E11704EB11610912A02202EBE7
:101420004101C8B2FFF75DFF02E02846FFF759FF10
:10143000FFF7EAFEE0B2FFF754FFFFF7E5FEFFF724
:10144000A2FE691CC8B2FFF74CFFFFF7DDFE012FBB
:1014500004D10020FFF772FF064609E00120FFF7E4
:101460006DFF06460020FFF769FF00EB062086B2FD
:10147000FFF7ABFE3046BDE8F08110B53948006893
:1014800020F07040374908600846006840F040503E
:10149000086000203449091D08600420FFF72DFE74
:1014A00001203249C1F898010420FFF726FE0120EF
:1014B0002D49091D08600420FFF71FFE10BD10B55F
:1014C0002848006820F070402649086008460068F7
:1014D00040F0405008600020234908600420FFF7D6
:1014E000E8FD01202149C1F89C010420FFF7E1FD3E
:1014F00001201D4908600420FFF7DBFD00201B4987
:10150000C1F898010420FFF7D4FD00201649091DF9
:1015100008600420FFF7CDFD10BD70B50024002544
:1015200000260020104908600E48006820F0704036
:101530000C4908600846006840F00040086004203C
:10154000FFF7DBFD00BF1FE0012007490860032013
:10155000FFF7D3FD00260548D0F81C0140B1012655
:1015600007E00000000C01409881214200802142E8
:10157000002646EA4400C4B20020FE490860032069
:10158000FFF7BBFD681CC5B2082DDDDBFA4800681B
:1015900020F07040F84908600846006840F00040BC
:1015A00008600A20FFF7A9FD204670BD10B5F2487B
:1015B000006820F07040F04908600846006840F07C
:1015C000405008600020EB4908600420FFF771FDDF
:1015D0000020EA49C1F89C010420FFF76AFD0120C0
:1015E000E44908600420FFF764FD0020E349C1F8E6
:1015F00098010420FFF75DFDDF48006820F070408F
:10160000DD4908600846006840F00040086010BDF1
:1016100070B5002500240020D6490860D64800682F
:1016200020F07040D44908600846006840F000404F
:1016300008600420FFF73DFD0120D049C1F8980162
:101640000420FFF736FD01E0601CC4B2C9487C38B5
:10165000006808B1642CF7DB0020C649086004204C
:10166000FFF727FD642C00DA0125284670BD70B510
:101670000446C148006820F07040BF490860084631
:10168000006840F04050086000251BE00020B94988
:1016900008600520FFF731FD04F0800020B1012033
:1016A000B449091D086003E00020B249091D086023
:1016B0000120B04908600520FFF71FFD6006040EF9
:1016C000681CC5B2082DE1DB0020AA49086004208F
:1016D000FFF7EFFCA848006820F07040A6490860BA
:1016E0000846006840F0004008600420FFF7E1FC75
:1016F00070BD10B5A048006820F070409E49086099
:101700000846006840F04050086001209949086090
:101710000420FFF7F2FC01209849C1F89C01042045
:10172000FFF7EBFC00209349091D08600420FFF738
:10173000E4FC00209149C1F898010420FFF7DDFC8A
:1017400010BD2DE9F041002404E000208C4908552B
:10175000601CC4B2062CF8DBFFF7CBFF7120FFF74B
:1017600086FFFFF755FF87490870FFF7D6FE8449CB
:101770000870FFF71BFFFFF7D0FE81494870FFF7A5
:1017800015FFFFF7CAFE7E498870FFF70FFFFFF7CE
:10179000C4FE7B49C870FFF709FFFFF7BEFE78491A
:1017A0000871FFF703FFFFF7B8FE75494871FFF7AF
:1017B00086FEFFF762FE7248007800F06800082895
:1017C0004ED16F484078704908606D48807809684C
:1017D00040EA01206C4908606948C078096840EA1D
:1017E0000120694908600846006800090860084649
:1017F00000684FF47A714843000D634908606048FF
:10180000C078624908600846007800F00F00086060
:101810005B480079096840EA01205C490860584843
:101820004079096840EA0120584908600846006884
:101830004FF4FA6148438910C1EB105053490860D6
:1018400051480088000A524908704F480078487093
:101850004E480088000A88704C480078C87008E03C
:10186000FF204B49087048708870C87049A000F08C
:10187000B1F94AA000F0AEF9444800680A21B0FB73
:10188000F1F201FB120541480068B0FBF1F0B0FB3A
:10189000F1F201FB12063D4800686421B0FBF1F74C
:1018A0002B46324639463EA000F094F9364800688F
:1018B0000A21B0FBF1F201FB120533480068B0FBCE
:1018C000F1F0B0FBF1F201FB12062F480068642131
:1018D000B0FBF1F72B463246394635A000F07AF9D5
:1018E0002EA000F077F9BDE8F08110B5FFF701FFF9
:1018F0007020FFF7BCFEFFF78BFE224908700846F8
:10190000007818B12EA000F065F902E02DA000F0DB
:1019100061F9AC20FFF7ABFEFFF77AFE19490870BA
:101920000846007818B129A000F054F902E028A078
:1019300000F050F93320FFF79AFEFFF769FE1149D6
:1019400008700846007818B123A000F043F902E0BF
:1019500022A000F03FF90020FFF789FEFFF758FEB4
:10196000084908700846007818B11EA000F032F946
:101970003DE039E098812142000C01400080214285
:1019800035000020340000203C00002040000020F2
:1019900044000020CAA7B0DCC1CB00000D0A000043
:1019A000CEC2B6C83A256425642E25640000000026
:1019B000CAAAB6C83A256425642E25640000000032
:1019C00037000000372D6E2D0000000038000000A9
:1019D000382D6E2D0000000039000000392D6E2DCD
:1019E00000000000313000004FA000F0F3F8FFF7D6
:1019F00044FD10BD10B5FFF77CFE7020FFF737FEE9
:101A0000FFF706FE4A4908700846007818B149A059
:101A100000F0E0F802E048A000F0DCF8E120FFF779
:101A200026FEFFF7F5FD424908700846007818B118
:101A300043A000F0CFF802E042A000F0CBF808206D
:101A4000FFF715FEFFF7E4FD3949087008460078F6
:101A500018B13EA000F0BEF802E03DA000F0BAF8D8
:101A60000020FFF704FEFFF7D3FD31490870084658
:101A7000007818B138A000F0ADF802E037A000F00F
:101A8000A9F8FFF7FAFC10BD10B5FFF732FE702081
:101A9000FFF7EDFDFFF7BCFD25490870084600780B
:101AA00018B130A000F096F802E02FA000F092F8F4
:101AB000BA20FFF7DCFDFFF7ABFD1D4908700846B3
:101AC000007818B12AA000F085F802E029A000F003
:101AD00081F8FFF7D2FC10BD10B50A20FFF70DFB0F
:101AE000FFF7D2FF0A20FFF708FBFFF783FF0A206A
:101AF000FFF703FBFFF7F9FE5020FFF7FEFAFFF7B1
:101B000020FE0520FFF7F9FA10BD1C4800781C499B
:101B1000C8701A484078087118488078487117488A
:101B2000C07888717047000031302D6E2D000000A4
:101B30003400002033000000332D6E2D0000000023
:101B400034000000342D6E2D000000003500000030
:101B5000352D6E2D0000000036000000362D6E2D54
:101B60000000000031000000312D6E2D000000004B
:101B700032000000322D6E2D0000000044000020D5
:101B80004800002030B50B460146002020220124E9
:101B900009E021FA02F59D4205D303FA02F5491B3B
:101BA00004FA02F52844151EA2F10102F1DC30BD51
:101BB000064C074D06E0E06840F0010394E807009A
:101BC00098471034AC42F6D3FEF794FA681D00082B
:101BD000881D00080FB4054B10B503A9044A0298EC
:101BE00000F018F810BC5DF814FB0000450F000869
:101BF0002800002002E008C8121F08C1002AFAD1FC
:101C000070477047002001E001C1121F002AFBD17C
:101C1000704700002DE9FF4F89B09B460446002520
:101C200006E025280BD05A460B999047641C6D1C82
:101C300020780028F5D10DB02846BDE8F08F0027A8
:101C4000B8460122474900E0074314F8013F203B12
:101C500002FA03F00842F7D120782E2819D114F89F
:101C6000010F47F004072A280ED06FF02F022078CA
:101C7000A0F1300109290CD808EB880102EB4101E1
:101C800000EB0108641CF2E70A98641C50F8048B0E
:101C90000A9020780028CED0642808D0692806D081
:101CA00075281ED05A460B9990476D1C58E00A992A
:101CB0004FF00A0901C90A91002802DA40422D2199
:101CC00002E0390504D52B218DF82010012103E015
:101CD000F90704D02021F7E78A4608AE0DE000217D
:101CE000FAE70A994FF00A0901C90A91F7E749464C
:101CF000FFF748FF303106F8011D0028F7D1ADEBA2
:101D0000060000F12009780701D44FF00108C8450A
:101D100002DDA8EB090000E000208046002706E075
:101D200008A85A46C05D0B9990476D1C7F1C57450B
:101D3000F6DB04E030205A460B9990476D1CB8F151
:101D40000001A8F10108F5DC05E016F8010B5A4680
:101D50000B9990476D1CB9F10001A9F10109F4DC60
:101D6000641C65E709280100881D000800000020A8
:101D700054000000F41B0008DC1D00085400002083
:101D8000CC040000041C000800A24A04000000006B
:101D9000000000000102030406070809000000001B
:101DA00001020304010203040607080902040608ED
:101DB0000000000000000000000000000000000023
:101DC0000000000000000000000000000000000013
:0C1DD000FA060A000000000000FF0000FE
:04000005080000ED02
:00000001FF
