:020000040800F2
:1000000010070020890100081F1100085310000884
:100010001D110008CF02000889130008000000002D
:100020000000000000000000000000002311000894
:10003000D10200080000000021110008251100086D
:10004000A3010008A3010008A3010008A301000800
:10005000A3010008A3010008A3010008A3010008F0
:10006000A3010008A3010008A3010008A3010008E0
:10007000A3010008A3010008A3010008A3010008D0
:10008000A3010008A3010008A3010008A3010008C0
:10009000A3010008A3010008A3010008A3010008B0
:1000A000A3010008A3010008A3010008A3010008A0
:1000B00089110008A3010008A3010008A30100089A
:1000C000A3010008A3010008A3010008A301000880
:1000D000A3010008A3010008A3010008A301000870
:1000E000A3010008A3010008A301000800F002F822
:1000F00000F03AF80AA090E8000C82448344AAF188
:100100000107DA4501D100F02FF8AFF2090EBAE885
:100110000F0013F0010F18BFFB1A43F0010318473B
:10012000D4120000F4120000103A24BF78C878C13D
:10013000FAD8520724BF30C830C144BF04680C60ED
:10014000704700000023002400250026103A28BF35
:1001500078C1FBD8520728BF30C148BF0B60704739
:100160001FB51FBD10B510BD00F077F81146FFF7A1
:10017000F7FF01F01BF900F095F803B4FFF7F2FF69
:1001800003BC00F09DF8000009488047094800477B
:10019000FEE7FEE7FEE7FEE7FEE7FEE7FEE7FEE737
:1001A000FEE7FEE704480549054A064B7047000094
:1001B00087110008ED000008100100201007002042
:1001C000100300201003002010B5431C02E010F8BB
:1001D000011B71B18107FAD14FF0013202C88C1AAC
:1001E0008C4314EAC211F9D0C01A0A0603D0C01E0B
:1001F00010BDC01A10BD0A0401D0801E10BD090236
:10020000FCD0401E10BD4FF0000200B513469446CE
:100210009646203922BFA0E80C50A0E80C50B1F15E
:100220002001BFF4F7AF090728BFA0E80C5048BF72
:100230000CC05DF804EB890028BF40F8042B08BF10
:10024000704748BF20F8022B11F0804F18BF00F80C
:10025000012B7047704770477047754600F02CF8C7
:10026000AE4605006946534620F00700854618B0A3
:1002700020B5FFF797FFBDE820404FF000064FF094
:1002800000074FF000084FF0000B21F00701AC46CB
:10029000ACE8C009ACE8C009ACE8C009ACE8C009EA
:1002A0008D46704710B50446AFF300802046BDE888
:1002B0001040FFF762BF000000487047B000002008
:1002C00001491820ABBEFEE7260002007047FEE79A
:1002D000704772B6FEE700002DE9F84FDFF8B891DD
:1002E000002409F1040A0AF1040B23460F270BF13D
:1002F000040EC9E00125A5402A40AA427DD1674EDF
:10030000D1F804C0ACEB0608B44532D014DCBCF123
:10031000030F3AD009DCBCF1000F2AD0BCF1010F69
:100320001CD0BCF1020F31D11DE0BCF1110F17D070
:10033000BCF1120F2AD119E0B8F5881F19D006DCDC
:10034000B8F5803F15D0B8F5801F1FD111E0B8F582
:10035000001F0ED0B8F5041F18D10AE0CB6815E0D5
:10036000CB681B1D12E0CB6808330FE0CB680C3361
:100370000CE08B682BB1012B4FF0080303D04561D3
:1003800004E0042302E0056100E00023FF2A01D815
:10039000064601E000F104064FEA840501D9A5F103
:1003A0002005D6F8008007FA05FC28EA0C0803FAB5
:1003B00005F548EA0508C6F800804D68ED0062D5ED
:1003C000374DAE6946F00106AE61AD6924F0030613
:1003D00005F001050095334D06EB050CDCF80850DF
:1003E000A607360F07FA06F825EA0805DFF8B880F1
:1003F000404503D14FF0000817E044E0DFF8AC803F
:10040000404502D14FF001080FE0DFF8A4804045DD
:1004100002D14FF0020808E0DFF89880404502D191
:100420004FF0030801E04FF0040808FA06F848EA24
:100430000508CCF808804D68D9F80060ED034D46FA
:1004400001D5164300E096432E604D68DAF800604F
:10045000AD03554601D5164300E096432E604D6826
:10046000DBF80060ED025D4601D5164300E09643DF
:100470002E604D68DEF80060AD02754601D516436A
:1004800000E096432E60641C0D682A46E5407FF428
:1004900031AFBDE8F88F00000004014000001110EA
:1004A000001002400000014000080140000C014023
:1004B00000100140001401400148806870470000AE
:1004C000140000200248816802781144816070475E
:1004D00014000020074810B5016841F010010160C8
:1004E000032000F06DF80F2000F006F800F024F86B
:1004F000002010BD0020024070B50D4D04464FF4A1
:100500007A712878B1FBF0F00A490968B1FBF0F084
:1005100000F0E4FA48B9102C07D200222146501E00
:1005200000F02EF800206C6070BD012070BD00004E
:100530001400002020000020094808B5816941F01E
:1005400001018161816901F001010091C16941F0FE
:100550008051C161C06900F08050009008BD00006A
:1005600000100240002809DB00F01F020121914029
:100570004009800000F1E020C0F800117047000041
:10058000F0B40E4B1B680C46C3F30223C3F10705FE
:10059000042D00D90425191D072901D2002300E0EC
:1005A000DB1E012606FA05F1491E214099409E40B6
:1005B000761E16403143F0BC00F0E7BE0CED00E0C3
:1005C000064900F0070208684FF6FF03184040EAAA
:1005D0000220034A10430860704700000CED00E061
:1005E0000000FA052DE9F0470F46050061D0434EA3
:1005F000306800F00700B84209D2306820F00700E8
:1006000038433060306800F00700B84251D12868A4
:100610003B4C810712D5400703D5606840F4E06089
:1006200060602878000703D5606840F4605060601F
:100630006068A96820F0F000084360602878C0076F
:1006400028D06868012810D02168022810D08907B6
:1006500000292EDA616821F0030101436160FFF790
:100660002BFF804641F288390DE021688903EFE7CE
:100670008901EDE7FFF720FFA0EB0801494502D90A
:100680000320BDE8F0876068696800F00C00B0EBFB
:10069000810FEFD1306800F00700B8420BD9306805
:1006A00020F0070038433060306800F00700B8429F
:1006B00001D00120E5E72878400705D56068E968A2
:1006C00020F4E060084360602878000706D5606881
:1006D000296920F4605040EAC100606000F038F8F9
:1006E0006168084AC1F30311515CC84006490860BB
:1006F00006480068FFF700FF0020C2E70020024024
:1007000000100240DC130008200000201800002028
:100710000448054900684968044AC1F30221515C54
:10072000C84070472000002000100240EC13000871
:100730000448054900684968044AC1F3C221515C74
:10074000C84070472000002000100240EC13000851
:1007500012A185B00FC98DE80F0014A0144A0068DB
:1007600004905168134801F00C03042B10D0082B9F
:100770000ED1C1F38343C9031DF803000AD55168A4
:1007800004AAC1F34041515C0A4A5043B0FBF1F066
:1007900005B0704708494843FAE700000203040522
:1007A000060708090A0B0C0D0E0F101001020000BD
:1007B0000010024000127A0000093D002DE9F84FB8
:1007C000040070D02078C04DC00749D06868C0F3DD
:1007D0008100012807D06868C0F38100022809D190
:1007E0006868C00306D52868800339D5606800288A
:1007F000E7D035E06068B0F5803F0BD010B1B0F5C0
:10080000A02F11D0286820F480302860286820F4B8
:10081000802002E0286840F480302860606890B151
:10082000FFF74AFE06460AE0286840F48020286068
:10083000F0E700BFFFF740FE801B642873D82868EC
:100840008003F7D50CE0FFF737FE064605E000BF52
:10085000FFF732FE801B6428F0D828688003F7D4A5
:1008600020789A4E80074FF001094FF0000839D5E3
:10087000686810F00C0F07D06868C0F38100022888
:1008800009D16868C00306D42868800714D5206998
:10089000012808D110E02069B0B1C6F80090FFF738
:1008A0000BFE074605E00AE1FFF706FEC01B022823
:1008B000C4D828688007F7D52868616920F0F80057
:1008C00040EAC10028600DE0C6F80080FFF7F4FDA3
:1008D000074604E0FFF7F0FDC01B022823D8286874
:1008E0008007F7D4207800072CD57948A169D9B1C1
:1008F000C0F80090FFF7E0FD074604E0FFF7DCFDDD
:10090000C01B02280FD8686A8007F7D571484FF4DA
:10091000FA510068B0FBF1F0009000BF0098411E52
:100920000091FAD20EE080E0C0F80080FFF7C4FD2D
:10093000074604E0FFF7C0FDC01B022875D8686AAF
:100940008007F7D42078400760D5E8690027C00009
:1009500008D4E86940F08050E861E869012700F0B8
:10096000805000905C480168C90513D40168834633
:1009700041F480710160FFF79FFD824606E000BFF1
:10098000FFF79AFDA0EB0A0064284ED8DBF80000C0
:10099000C005F5D5E06801280AD008B1052813D0B4
:1009A000286A20F001002862286A20F0040002E092
:1009B000286A40F001002862E06841F2883B98B163
:1009C000FFF77AFD82460BE0286A40F004002862B7
:1009D000EEE700BFFFF770FDA0EB0A0159455AD8BA
:1009E000286A8007F6D50CE0FFF766FD824605E031
:1009F000FFF762FDA0EB0A0159454CD8286A800731
:100A0000F6D41FB1E86920F08050E861E06988B34E
:100A10006968C1F38101022944D00228C6F86080C8
:100A200004D0FFF749FD044638E034E0FFF744FD09
:100A3000074604E0FFF740FDC01B02282BD82868BA
:100A40008001F7D4206AB0F5803F05D16868A168BD
:100A500020F4003008436860D4E90801084369685D
:100A600021F4741108436860C6F86090FFF724FD14
:100A7000044606E025E000BFFFF71EFD001B02282C
:100A800009D828688001F7D51BE000BFFFF714FDE7
:100A9000001B022802D90320BDE8F88F28688001D6
:100AA000F4D40EE00128F7D06868226A00F480319F
:100AB000914204D1616A00F47010884201D0012093
:100AC000EAE70020E8E70000001002400000424290
:100AD00080044242200000200070004010B5401EFB
:100AE000B0F1807F01D3012010BD4FF0E0246061A0
:100AF0000F21601700F049FC0020A0610720206151
:100B0000002010BD7047704770B590F83C20012A56
:100B100026D0012480F83C40022280F83D20036862
:100B20005A689D6822F070060A6832435A600D4B7D
:100B300002689A4208D0B2F1804F05D00A4B9A421F
:100B400002D00A4B9A4204D1496825F08003194328
:100B5000916080F83D40002180F83C10084670BD4F
:100B6000022070BD002C014000040040000800403D
:100B700010B5040003D094F83D0010B107E0012047
:100B800010BD002084F83C00204600F01FF8022031
:100B900084F83D00211D206800F0FCFA012084F853
:100BA000460084F83E0084F83F0084F8400084F852
:100BB000410084F8420084F8430084F8440084F83B
:100BC000450084F83D00002010BD000008B5006815
:100BD000B0F1804F08D10548C16941F00101C16100
:100BE000C06900F00100009008BD00000010024044
:100BF00090F83D10012901D001207047022180F8B2
:100C00003D100168CA6842F00102CA6000680B49E1
:100C1000884208D0B0F1804F05D00949884202D0FF
:100C20000849884204D1816801F00701062903D0F0
:100C3000016841F00101016000207047002C014073
:100C4000000400400008004070B5044690F83C00E5
:100C5000012817D0012584F83C50022084F83D007B
:100C60002068826822F0770222F47F42826008685E
:100C7000502830D00DDC20284DD005DC98B310284A
:100C80003BD148E0022070BD302844D0402834D108
:100C900039E0602828D0702806D0B0F5805F2CD0CD
:100CA000B0F5005F29D10AE0CB68D1E901212068C5
:100CB00000F0A6FA2068816841F0770109E0CB686E
:100CC000D1E90121206800F09BFA2068816841F495
:100CD0008041816011E0CA684968206800F0A2FA8A
:100CE0005021206807E016E0CA684968206800F0D3
:100CF000AAFA6021206800F08DFA84F83D500020A7
:100D000084F83C0070BDCA684968206800F08AFA1F
:100D100040212068EFE7226801461046EBE7704764
:100D200070B50446006801694FF00005C9438907A2
:100D300015D4C168C943890711D4E91E0161012096
:100D40002077206880698007204602D0FFF7E7FF00
:100D500004E000F098F8204600F096F82577206827
:100D60000169C943490717D4C168C943490713D466
:100D70006FF004010161022020772068806910F47F
:100D8000407F204602D0FFF7CAFF04E000F07BF866
:100D9000204600F079F8257720680169C9430907E2
:100DA00016D4C168C943090712D46FF00801016164
:100DB000042020772068C0698007204602D0FFF712
:100DC000AEFF04E000F05FF8204600F05DF8257704
:100DD00020680169C943C90617D4C168C943C90657
:100DE00013D46FF010010161082020772068C069DA
:100DF00010F4407F204602D0FFF791FF04E000F09E
:100E000042F8204600F040F8257720680169C94380
:100E1000C90708D1C168C943C90704D1891E016146
:100E2000204600F033F820680169C943090609D457
:100E3000C168C943090605D46FF0800101612046ED
:100E4000FFF760FE20680169C943490609D4C168FB
:100E5000C943490605D46FF040010161204600F006
:100E600035F820680169C94389060BD4C168C943B4
:100E7000890607D46FF0200101612046BDE870406B
:100E8000FFF741BE70BD70477047000010B50068A5
:100E9000B0F1804F15D10B480168491C0160B1F5D4
:100EA0007A7F0ED300210160001DFFF78DF90549FF
:100EB00082B2BDE810404FF6FF73091D024800F0F2
:100EC0006FB810BD000000206C000020704770B5A6
:100ED000040004D094F83D00002510B106E0012084
:100EE00070BD84F83C50204600F022F8242084F89D
:100EF0003D002068C16821F40051C160204600F027
:100F0000B5F92068016921F49041016120684169C7
:100F100021F02A0141612068C16841F40051C1609B
:100F20002564202084F83D0084F83E00002070BD38
:100F300030B585B0002400940194029403940068B5
:100F40001449884224D11448816941F48041816167
:100F5000816901F480410491816941F0040181615A
:100F600080690E4D00F0040004904FF40070009072
:100F7000022001900320039069462846FFF7ACF950
:100F80002815CDE90004694628460294FFF7A4F924
:100F900005B030BD0038014000100240000801409B
:100FA0002DE9F843044690F83D001F4616460D46CD
:100FB00020284CD1C5B1BEB194F83C00012846D0E0
:100FC000012084F83C004FF00008C4F84080212044
:100FD00084F83D00FFF770FAA6848146E684A06895
:100FE000B0F5805F03D004E00120BDE8F8832069FC
:100FF00028B12E465FF0000584F83C800EE0002604
:10100000FAE78021204600F08DF9A0B9AEB116F8BC
:10101000010B21684860E08C401EE084E08C4B4668
:101020004FF0000200970028EBD14FF0400120461E
:1010300000F078F930B10320D7E735F8020BC0F3A0
:101040000800E6E7202084F83D000020CDE70220DC
:10105000CBE7FEE7094808B5816941F020018161CD
:10106000816901F020010091816941F004018161F1
:10107000806900F00400009008BD000000100240EC
:1010800010B586B00024164800940194029403948D
:1010900004944FF08041059401604721C0E9011498
:1010A00041F28831C0E903148461FFF761FD08B1A2
:1010B000FFF70FF94FF48050009069460848FFF79A
:1010C000C3FD08B1FFF705F9049404A90448059489
:1010D000FFF71AFD002801D0FFF7FBF806B010BD9E
:1010E000240000200C4810B50A4901604FF4E1319A
:1010F0004160002181600C22C160C0E9041281615D
:10110000C161FFF7E4FE002803D0BDE81040FFF7FF
:10111000E0B810BD003801406C000020FEE7FEE79B
:1011200070477047FFF7CEB930B58FB028216846B9
:10113000FFF769F814210AA8FFF765F801210804F0
:10114000CDE900100024029402250491CDE9075056
:101150004FF4E01009906846FFF730FB08B172B613
:10116000FEE70F20CDE90A054FF48060CDE90C4081
:1011700002210AA80E94FFF735FA002801D072B6B2
:10118000FEE70FB030BD70470148FFF7C9BD000052
:1011900024000020F0B50268164B174C174D4FF095
:1011A0008047984205D0B84203D0A04201D0A8425F
:1011B00003D122F070064A683243984205D0B84203
:1011C00003D0A04201D0A84203D122F44074CA68DF
:1011D00022434C6922F08002224302608A68C26284
:1011E0000A688262984201D1096901630121416163
:1011F000F0BD0000002C0140000400400008004049
:1012000010B5846842EA032224F47F440A4322434F
:10121000826010BD826822F070020A4342F007012A
:101220008160704710B5036A046A24F00104046207
:10123000846924F0F00444EA021423F00A020A4309
:101240008461026210BD10B5036A23F010030362CB
:101250008369046A23F4704343EA023224F0A00352
:1012600043EA01118261016210BD000070B50446BD
:1012700000680169E26821F440511143016121696C
:10128000A0680843616908432168CA6841F20C6399
:101290009A430243CA6020684169A26921F44071FF
:1012A000114341611E492068884202D1FFF740FA8C
:1012B00001E0FFF72DFA00EBC00101EB00126068BE
:1012C00064218000B2FBF0F3B3FBF1F36FF018067A
:1012D0007343B2FBF0F5B2FBF0F605EB8305322366
:1012E00003EB0515B5FBF1F5B6FBF1F605F0F005DE
:1012F00005EB0615B2FBF0F6B2FBF0F0B0FBF1F037
:101300006FF01802504306EB800003EB0010B0FBB7
:10131000F1F0216800F00F002844886070BD0000E3
:10132000003801402DE9F041984617460E46044624
:10133000069D1DE0681C1BD02DB1FFF7BDF8A0EB8A
:101340000800A84214D92068C16821F4D071C16096
:101350002068416921F001014161202084F83D00AD
:1013600084F83E00002084F83C000320BDE8F081B2
:101370002068006836EA000004D00020B842D9D0C6
:101380000020F3E70120F9E7FEE70907090E00282E
:1013900004DB00F1E02080F80014704700F00F003B
:1013A00000F1E02080F8141D70470000FFF792F86C
:1013B000FFF7BAFEFFF74EFEFFF762FEFFF792FE61
:1013C000002211461C20FFF7DBF81C20FFF7CAF8AB
:1013D0000148FFF70DFCFEE724000020000000009C
:1013E00000000000010203040607080900000000D5
:1013F000010203041414000800000020240000006F
:10140000280100083814000824000020EC06000021
:10141000440100080000000068656C6C6F2057698B
:101420006E646F77730A0000010000001000000076
:08143000000000000024F4009C
:04000005080000ED02
:00000001FF
